:020000040800F2
:10000000A00A0020718B0008C58A0008C78A000872
:10001000C98A0008CB8A0008CD8A000800000000C9
:10002000000000000000000000000000CF8A00086F
:10003000D18A000800000000D38A0008A139000816
:10004000658C0008698C00086D8C0008718C0008B4
:10005000758C0008798C00087D8C0008818C000864
:10006000858C0008898C00088D8C0008918C000814
:10007000958C0008998C000899480008A34800084E
:10008000A58C0008A98C0008AD8C0008B18C000874
:10009000D58A0008B98C0008BD8C0008AB7D00082B
:1000A000C58C0008C98C0008CD8C0008D18C0008D4
:1000B000D58C0008D98C0008DD8C0008E18C000884
:1000C000E58C0008834800088D480008F18C000882
:1000D000F58C0008DD8A0008FD8C0008018D000801
:1000E000058D0008098D00080D8D000810B582B03F
:1000F0000400DFF8E40890F82400002820D0E4B2DF
:10010000002C03D002208DF8000002E000208DF8C2
:10011000000000AB0122DFF8C0080068417CDFF876
:10012000B8084068007802F0A3FA002802D05FF017
:10013000FF3038E09DF80000DFF89C18487431E08B
:10014000DFF89408807A002802D15FF0FF302AE0BF
:10015000E4B2002C06D0DFF88008407C002801D0F3
:10016000002020E0E4B2002C03D001208DF8000034
:1001700002E000208DF8000000AB0122DFF85808F3
:100180000068417CDFF850084068007802F070FA9F
:10019000002802D05FF0FF3005E09DF80000DFF896
:1001A00038184874002016BD2DE9FC410400802059
:1001B0008DF8000000AB0122DFF81C080068417DCB
:1001C000DFF814084068007802F052FA002802D0E4
:1001D0005FF0FF3001E1642002F0ECFA00208DF8BE
:1001E000000000AB0122DFF8F0070068417DDFF876
:1001F000E8074068007802F03BFA002802D05FF080
:10020000FF30EAE000AB0622DFF8CC070068417E51
:10021000DFF8C4074068007802F05DFA002802D0D9
:100220005FF0FF30D9E09DF8050010F001009DF867
:10023000031011F00101490051EA80009DF80110FE
:1002400011F0010108430500EDB2002D12D0EDB20E
:10025000012D04D10120DFF88017C87432E0EDB21F
:10026000022D04D10020DFF87017C8742AE05FF077
:10027000FF30B2E000AB0122DFF85C070068C17814
:10028000DFF854074068007802F025FA002802D011
:100290005FF0FF30A1E09DF8000010F00F000500B6
:1002A000EDB2002D02D15FF0FF3096E0EDB2042DEB
:1002B00004D10120DFF82017C87403E00020DFF824
:1002C0001817C874FF20DFF810178872FF20DFF8B6
:1002D00008170872FF20DFF800174872FF20DFF8C8
:1002E000F816C8724FF6FF70DFF8EC16C881FF20D1
:1002F000DFF8E4160874FF20DFF8DC1688744FF688
:10030000FF70DFF8D41608850120DFF8CC160873DB
:100310000120DFF8C41681F822000020DFF8B816AB
:1003200081F823000020DFF8B01648750020DFF8C0
:10033000A81608750C260027DFF810893A0031004E
:10034000404602F05BFA0020DFF88C1681F82400AA
:100350000020DFF8841681F825000020DFF87816E9
:10036000C8844FF4FA6000F0EEF9002802D05FF084
:10037000FF3032E0022000F05CFA002802D05FF08B
:10038000FF302AE02A2000F0C8FA002802D05FF0EF
:10039000FF3022E0322000F021FB002802D05FF085
:1003A000FF301AE0002000F00EFC002802D05FF0C1
:1003B000FF3012E0002C02D0012002F053FA01F0CD
:1003C00059FE0A2000F078FB002802D05FF0FF30D1
:1003D00003E0002000F03CFC0020BDE8F68110B5F1
:1003E00082B00400E4B2292C02DB5FF0FF3074E03D
:1003F000E4B2002C1FD1002000F07EFF00208DF819
:10040000000007208DF8010000AB0222DFF8C805CC
:100410000068417DDFF8C0054068007802F028F9E7
:10042000002802D05FF0FF3057E00020DFF8A81569
:100430000875002051E0012000F05EFF20208DF8BB
:100440000000E4B2012C06D100208DF80100052047
:1004500000F063FA19E0E4B2062C06DA01208DF808
:100460000100052000F059FA0FE0E4B2152C06DA7D
:1004700002208DF801000A2000F04FFA05E0032069
:100480008DF80100142000F048FA9DF80100800169
:1004900050F007008DF8010000AB0222DFF83805AC
:1004A0000068417DDFF830054068007802F0E0F830
:1004B000002802D05FF0FF300FE00820DFF81815A9
:1004C00088720020DFF8101508730120DFF8081586
:1004D0000875002000F077FB002016BD80B5DFF81E
:1004E0000809807A002802D15FF0FF300BE100207C
:1004F0008DF8000000AB0122DFF8EC080068417CB9
:10050000DFF8E4084068007802F0B2F8002802D072
:100510005FF0FF30F7E000AB0122DFF8CC080068A5
:100520004179DFF8C4084068007802F0A1F800289B
:1005300002D05FF0FF30E6E000AB0122DFF8A80850
:1005400000680179DFF8A0084068007802F090F8B0
:10055000002802D05FF0FF30D5E0DFF88C0890F87B
:100560002400002866D00C208DF8000000AB01228A
:10057000DFF8740800680179DFF86C0840680078DB
:1005800002F076F8002802D05FF0FF30BBE03220A6
:1005900002F010F9C0208DF80000DFF84C08807AD6
:1005A000C00705D59DF8000050F020008DF8000030
:1005B00000AB0122DFF8300800680179DFF8280875
:1005C0004068007802F054F8002802D05FF0FF3055
:1005D00099E0DFF81408407C002803D002208DF851
:1005E000000002E000208DF8000000AB0122DFF8DF
:1005F000F8070068417CDFF8F0074068007802F0F7
:1006000037F8002802D05FF0FF307CE000208DF842
:10061000000000AB0122DFF8D00700684179DFF865
:10062000C8074068007802F023F800286AD05FF01D
:10063000FF3068E004208DF8000000AB0122DFF8F5
:10064000A80700680179DFF8A0074068007802F089
:100650000FF8002802D05FF0FF3054E0DFF8880781
:10066000807C002804D1DFF88007807AC00703D49B
:1006700040208DF8000002E060208DF8000000AB03
:100680000122DFF8640700680179DFF85C07406841
:10069000007801F0EDFF002802D05FF0FF3032E07B
:1006A000322002F087F8DFF84007407C002803D0B2
:1006B00001208DF8000002E000208DF8000000AB62
:1006C0000122DFF824070068417CDFF81C0740683E
:1006D000007801F0CDFF002802D05FF0FF3012E07B
:1006E000DFF8103C0122DFF8000700684179DFF8ED
:1006F000F8064068007801F0BBFF002802D05FF0E8
:10070000FF3000E0002002BD0100DFF8DC06007AC7
:10071000002805D002280AD005D303280BD00EE00C
:10072000FA2008800DE04FF4FA70088009E04FF4D9
:100730007A70088005E04FF4FA60088001E000203C
:1007400008800020704710B582B00400DFF89806DA
:10075000807A002802D15FF0FF3044E0A4B220008C
:10076000FA2809D0B0F5FA7F0AD0B0F57A7F0BD01D
:10077000B0F5FA6F0CD00FE000208DF800000EE00D
:1007800008208DF800000AE010208DF8000006E037
:1007900018208DF8000002E05FF0FF3023E0DFF862
:1007A0004806007A9DF80010C9B2C908884201D1F4
:1007B000002018E000AB0122DFF82C0600688179E8
:1007C000DFF824064068007801F052FF002802D0CC
:1007D0005FF0FF3007E09DF80000C0B2C008DFF80E
:1007E00008160872002016BD0100DFF8FC05407AEB
:1007F000002805D0022809D005D3032809D00BE032
:10080000022008700BE00420087008E0082008703F
:1008100005E01020087002E05FF0FF3008E0DFF82C
:10082000C805C07C002802D008784000087000206D
:10083000704710B582B00400DFF8AC05807A00285C
:1008400002D15FF0FF3041E0E4B22000022806D080
:10085000042808D008280AD010280CD00FE0002067
:100860008DF800000EE008208DF800000AE010204E
:100870008DF8000006E018208DF8000002E05FF01F
:10088000FF3023E0DFF86005407A9DF80010C9B220
:10089000C908884201D1002018E000AB0122DFF82E
:1008A00048050068C179DFF840054068007801F02C
:1008B000DFFE002802D05FF0FF3007E09DF8000067
:1008C000C0B2C008DFF820154872002016BD010034
:1008D000DFF81405C07A012809D01AD303280CD0F8
:1008E00008D305280FD00BD306280FD011E0BC2069
:1008F000088010E0622008800DE02A2008800AE0CD
:100900001420088007E00A20088004E00520088001
:1009100001E0002008800020704710B582B004007C
:100920002D48807A002802D15FF0FF3041E0A4B268
:10093000BC2C03DB01208DF800001EE0A4B2622C69
:1009400003DB02208DF8000017E0A4B22A2C03DBA1
:1009500003208DF8000010E0A4B2142C03DB042067
:100960008DF8000009E0A4B20A2C03DB05208DF805
:10097000000002E006208DF800001748C07A9DF8BC
:100980000010884201D1002013E000AB0122124880
:100990000068817810484068007801F069FE0028FE
:1009A00002D05FF0FF3004E09DF800000A49C872F1
:1009B000002016BD0100DFF8300490F82400002864
:1009C00002D05FF0FF3004E0DFF81C04C08908802B
:1009D00000207047000000000000002010B582B029
:1009E0000400DFF80404807A002802D15FF0FF30B1
:1009F00061E0DFF8F40390F82400002802D05FF0F3
:100A0000FF3058E0DFF8E003007D00280ED0A4B2EC
:100A1000002C08D0A4B2292C05DA2000C0B2FFF7C0
:100A2000DEFC002047E00020FFF7D9FCA4B2042C34
:100A300002DA0420040006E0A4B2B4F57A7F02DDF5
:100A40004FF47A7004004FF47A70A4B290FBF4F083
:100A5000401E8DF8000000AB0122DFF88C03006817
:100A60004178DFF884034068007801F001FE002837
:100A700002D05FF0FF301EE04FF47A709DF8001056
:100A8000491C90FBF1F0DFF86013C881DFF85803D0
:100A9000008D642803DADFF85003008D00E0642045
:100AA00080B200F009F8DFF84003C08980B2400846
:100AB000FFF733FF002016BD10B582B00400A4B2CA
:100AC000002C08D0DFF82003C089A4B2A04202D3D2
:100AD000A4B2652C02DB5FF0FF3025E0DFF80803ED
:100AE000C089A4B290FBF4F0401E8DF8000000AB6A
:100AF0000122DFF8F402006890F82410DFF8E80221
:100B00004068007801F0B4FD002802D05FF0FF30AB
:100B10000AE0DFF8D402C0899DF80010491C90FB60
:100B2000F1F0B1490885002016BD0100AE48007AF9
:100B3000002805D002280BD006D303280CD00FE0E4
:100B4000DFF81C0C08600EE0DFF8180C08600AE003
:100B5000DFF8140C086006E0DFF8100C086002E013
:100B60005FF0FF3000E00020704701009E48407AAF
:100B7000002805D002280BD006D303280CD00FE0A4
:100B80004FF4804008800EE041F69C7008800AE037
:100B90004FF48050088006E04FF40060088002E0C7
:100BA0005FF0FF3008E09048C07C002803D0088840
:100BB00080B2400808800020704701008A48007C0D
:100BC00008700020704770B50600002516F0FE067C
:100BD000854890F82400002801D0002034E08248A5
:100BE000807A002802D15FF0FF302DE07E48007C43
:100BF00004007D48807A30407B4908747A48007C44
:100C0000F6B2B04203D05FF0FF30050001E00020F3
:100C10000500F6B2002E03D17348007D002803D0F2
:100C20000120FFF763FA02E00020FFF75FFAF6B257
:100C3000002E08D0FFF752FC002804D06A48047444
:100C40005FF0FF3000E0280070BD000016000020BB
:100C500010B582B004007020044203D001208DF84A
:100C6000000009E0E4B2002C03D000208DF8000061
:100C700002E040208DF8000000AB01225A480068D5
:100C8000417D59484068007801F0F2FC002805D009
:100C90000020554988725FF0FF30A3E09DF8000006
:100CA00010F0BF005049087300208DF80000600666
:100CB00005D49DF8000050F004008DF80000A00657
:100CC00005D49DF8000050F002008DF80000E00609
:100CD00005D49DF8000050F001008DF800002007B9
:100CE00005D49DF8000050F038008DF8000000ABEE
:100CF00001223D480068817D3B484068007801F052
:100D0000B7FC002805D00020374988725FF0FF301B
:100D100068E0E4B2002C05D0E4B2082C02D0002038
:100D200000F0EAFA0DF1010301222F480068017971
:100D30002D484068007801F0CEFC002802D05FF01A
:100D4000FF304FE0E00709D501208DF800009DF845
:100D5000010050F020008DF8010008E000208DF81F
:100D600000009DF8010010F0DF008DF801001E4822
:100D700090F82400002806D09DF8010050F0800073
:100D80008DF8010005E09DF8010010F07F008DF85E
:100D9000010000AB01221448006890F826101248A8
:100DA0004068007801F064FC002802D05FF0FF305A
:100DB00018E00DF1010301220B48006801790A488F
:100DC0004068007801F054FC002802D05FF0FF304A
:100DD00008E005488472002003490875322001F0BC
:100DE000E9FC002016BD0000000000202DE9FE4FA8
:100DF00004000D0016001F00DDF830805FF0000BCE
:100E00005FF0000ADFF8680990F82400002802D09B
:100E10005FF0FF302EE100203870DFF85409807A4F
:100E2000002802D15FF0FF3024E1DFF84409007CA4
:100E3000002802D15FF0FF301CE1DFF83409007CAC
:100E4000400601D51BF1020BDFF82409007C800667
:100E500001D51BF1020BDFF81809007CC00601D593
:100E60001BF1020BDFF80809007C000701D51BF11C
:100E7000060B00AB0222DFF8F8080068017BDFF800
:100E8000F0084068007801F026FC002802D05FF0EE
:100E9000FF30EFE09DF800009DF8011051EA0020BE
:100EA00081465846C0B21FFA89F980B2814501D205
:100EB0000020DFE0DFF8B8084068408880B24008D2
:100EC0001FFA89F9484519D200AB0122DFF8A008C2
:100ED0000068C17CDFF898084068007801F0FBFBEF
:100EE000002802D05FF0FF30C4E09DF80000C0068B
:100EF00004D5FFF7F3FA7FF00100BBE000AB5A46E0
:100F0000D2B2DFF86C080068417BDFF86408406803
:100F1000007801F0E0FB002802D05FF0FF30A9E08C
:100F20001FFA89F95FFA8BFB99FBFBF0401E88F8EA
:100F30000000002038705846C0B21FFA8AFA80B20A
:100F4000824536D0DFF82808007C000731D500A89C
:100F50001FFA8AFA1AF8000000A91FFA8AFA1AEB97
:100F60000101497851EA0020288000A81FFA8AFA76
:100F70001AEB0000807800A91FFA8AFA1AEB010127
:100F8000C97851EA0020688000A81FFA8AFA1AEB93
:100F90000000007900A91FFA8AFA1AEB01014979C9
:100FA00051EA0020A880387850F0080038701AF113
:100FB000060A5846C0B21FFA8AFA80B2824518D093
:100FC000DFF8AC07007C400613D500A81FFA8AFAA8
:100FD0001AF8000000A91FFA8AFA1AEB01014978F1
:100FE00051EA00202080387850F0400038701AF123
:100FF000020A5846C0B21FFA8AFA80B2824518D057
:10100000DFF86C07007C800613D500A81FFA8AFA67
:101010001AF8000000A91FFA8AFA1AEB01014978B0
:1010200051EA00206080387850F0200038701AF1C2
:10103000020A5846C0B21FFA8AFA80B2824518D016
:10104000DFF82C07007CC00613D500A81FFA8AFA27
:101050001AF8000000A91FFA8AFA1AEB0101497870
:1010600051EA0020A080387850F0100038701AF152
:10107000020A0020BDE8FE8FF8B504000D0016003E
:10108000DFF8EC0690F82400002802D15FF0FF3072
:1010900064E0DFF8DC06807A002802D15FF0FF30E0
:1010A0005CE000AB0222DFF8C8060068017BDFF8D5
:1010B000C0064068007801F00EFB002802D05FF007
:1010C000FF304BE09DF800009DF8011051EA002030
:1010D0000700BFB2A4B2A74204D2002030705FF074
:1010E000FF303BE0DFF888064068408880B2400867
:1010F000BFB2B84219D200AB0122DFF87406006813
:10110000C17CDFF86C064068007801F0E4FA002842
:1011100002D05FF0FF3021E09DF80000C00604D54A
:10112000FFF7DCF97FF0010018E02B002200D2B2BB
:10113000DFF83C060068417BDFF834064068007841
:1011400001F0C9FA002802D05FF0FF3006E0BFB21C
:10115000A4B297FBF4F0401E30700020F2BD10B531
:1011600082B00400DFF80806807CE4B2A04201D11E
:101170000020BEE0E4B2002C56D000AB0122DFF824
:10118000F00500680179DFF8E8054068007801F0B3
:10119000A2FA002802D05FF0FF30AAE09DF800001C
:1011A00010F0DF008DF8000000AB0122DFF8C00571
:1011B00000680179DFF8B8054068007801F058FA56
:1011C000002802D05FF0FF3093E0032001F0F2FA34
:1011D00002208DF80000DFF8980590F82200002822
:1011E00005D09DF8000050F080008DF80000DFF879
:1011F000800590F82300002805D09DF8000050F0ED
:1012000030008DF8000000AB0122DFF864050068B3
:10121000C17DDFF85C054068007801F029FA0028FC
:1012200063D05FF0FF3064E000AB0122DFF84005DF
:1012300000680179DFF838054068007801F04BFA62
:10124000002802D05FF0FF3053E0DFF82405807AF9
:10125000C00706D59DF8000050F020008DF8000072
:1012600005E09DF8000010F0DF008DF8000000ABF5
:101270000122DFF8FC0400680179DFF8F40440681B
:10128000007801F0F5F9002802D05FF0FF3030E07F
:10129000032001F08FFADFF8D80490F8220000282C
:1012A00003D080208DF8000002E000208DF80000BF
:1012B000DFF8BC0490F82300002805D09DF800005A
:1012C00050F030008DF8000000AB0122DFF8A004E0
:1012D0000068C17DDFF898044068007801F0C8F923
:1012E000002802D05FF0FF3003E0DFF8840484744C
:1012F000002016BD1000002010B582B00400DFF8F9
:10130000700490F82300E4B2A04201D1002036E03E
:10131000E4B2002C03D030208DF8000002E0002061
:101320008DF80000DFF84804807C002805D09DF887
:10133000000050F002008DF80000DFF8340490F84F
:101340002200002805D09DF8000050F080008DF8A4
:10135000000000AB0122DFF818040068C17DDFF84F
:1013600010044068007801F083F9002802D05FF093
:10137000FF3004E0DFF8F80380F82340002016BDBA
:1013800030B583B0040001AB04220D21DFF8E00387
:101390004068007801F09FF9002801D0072054E050
:1013A0009DF80400C0B2C00810F01C009DF80710A2
:1013B000C1F3011108438DF800009DF80500C0B28B
:1013C000C00810F01C009DF80710C1F3810108430C
:1013D0008DF801009DF80600C0B2C00810F01C0096
:1013E0009DF8071011F0030108438DF8020000205A
:1013F0000500EDB2032D27DA00A8EDB2285C002825
:1014000004D10020EDB244F825001BE0DFF8540CB5
:10141000EDB244F8250000A8EDB2285C401E00A9FA
:10142000EDB2685400A8EDB2285C00280AD0EDB2F5
:1014300054F82500DFF8301C01F058FAEDB244F8FA
:101440002500E8E76D1CD4E700203EBD2DE9FE43F2
:1014500004000D00002700A8FFF792FF00200600FF
:10146000032E3EDA54F8260055F82610401A01F0F3
:10147000A9FA01F0ABFA5FF08F4101F0C1FA8046A2
:1014800000A850F82600002101F038FB16D0404695
:1014900000A951F8261001F0B3FADFF8D01B01F0D3
:1014A0003BFB8146DFF8C80B406A39F0004101F090
:1014B00075FB14D20120B040074310E04046DFF82E
:1014C000B01BC96901F06AFB06D3DFF8A40B006A00
:1014D000414601F063FB02D20120B0400743761C75
:1014E000BEE73800BDE8FE832DE9F04782B0040076
:1014F0000D00002700AB03220D219D4840680078B5
:1015000001F0E9F8002801D007206BE09DF8000009
:1015100010F01F008DF800009DF8010010F01F0072
:101520008DF801009DF8020010F01F008DF80200F8
:1015300000200600032E54DA54F8260055F8261031
:10154000401A01F03FFA01F041FA5FF08F4101F0DB
:1015500057FA814600A8305C00282FD0DFF8100B26
:10156000006801F03DFA0100DFF8BC0D01F048FA17
:10157000804600A8305C401E00A9705400A8305C72
:10158000002806D0DFF8A40D414601F0AFF98046EF
:10159000EFE74846414601F033FADFF8D01A01F090
:1015A000BBFA8246DFF8C80A80693AF0004101F0D0
:1015B000F5FA14D20120B040074310E04846DFF8A6
:1015C000B01A096901F0EAFA06D3DFF8A40A406903
:1015D000494601F0E3FA02D20120B0400743761CED
:1015E000A8E73800BDE8F6877CB50A260724012065
:1015F000FFF7B5FD5E4890F82A00002807D05C4848
:1016000090F82A0040005A4981F82A0003E0182087
:10161000574981F82A0000208DF8000000AB012214
:101620000A21534890F82A0001F022F8002801D03E
:10163000072093E040208DF8000000AB01220C2130
:101640004B4890F82A0001F013F8002864D10820D4
:101650008DF8000000AB01220A21454890F82A00CD
:1016600001F006F8002857D10A2001F0A3F800ABDA
:10167000012202213E4890F82A0001F02CF80028AF
:101680004AD19DF80000C00704D43000461EC0B205
:101690000028E9D19DF80000C0073DD500AB062227
:1016A0000321334890F82A0001F015F8002833D1BF
:1016B000002004009DF801009DF8001051EA002070
:1016C00005002DB2652D03DA2DB215F1640F01DA94
:1016D00054F001049DF803009DF8021051EA002027
:1016E00005002DB2652D03DA2DB215F1640F01DA74
:1016F00054F002049DF805009DF8041051EA002002
:1017000005002DB27FF49570854203DA2DB215F5F0
:101710007A7F01DA54F0040400208DF8000000AB59
:1017200001220C21124890F82A0000F0A1FF0020AD
:101730008DF8000000AB01220A210D4890F82A0024
:1017400000F096FF0020FFF70AFD094890F82A00F4
:10175000C0B24008064981F82A00200076BD00008A
:101760000000034300008342333303423333834199
:10177000000000202DE9F04387B005000E009046E0
:1017800001208DF8000000208DF8010000AB02223E
:10179000DFF84C0C0068417DDFF8440C40680078AD
:1017A00000F066FF002802D05FF0FF3039E2C82069
:1017B00001F000F800208DF8000000AB0122DFF8F6
:1017C000200C0068417CDFF8180C4068007800F0BD
:1017D0004FFF002802D05FF0FF3022E200AB012271
:1017E000DFF8FC0B00684179DFF8F40B4068007803
:1017F00000F03EFF002802D05FF0FF3011E200ABA6
:101800000122DFF8DC0B0068417DDFF8D40B406873
:10181000007800F02DFF002802D05FF0FF3000E2DA
:1018200000AB0122DFF8B80B0068817EDFF8B00B57
:101830004068007800F01CFF002802D05FF0FF3005
:10184000EFE100AB0122DFF8980B00680179DFF8C7
:10185000900B4068007800F00BFF002802D05FF08A
:10186000FF30DEE10C208DF8000000AB0122DFF834
:10187000700B00680179DFF8680B4068007800F0B1
:10188000F7FE002802D05FF0FF30CAE10F2000F021
:1018900091FFDFF84C0B406B407A8DF8000000ABF5
:1018A0000122DFF83C0B00688178DFF8340B4068D8
:1018B000007800F0DDFE002802D05FF0FF30B0E1DC
:1018C000DFF81C0B406B007A8DF8000000AB0122A2
:1018D000DFF80C0B00684178DFF8040B40680078F3
:1018E00000F0C6FE002802D05FF0FF3099E15FFAF9
:1018F00088F8B8F1000F08D0DFF8E40A406B807A6E
:1019000050F0E0008DF8000005E0DFF8D40A406BED
:10191000807A8DF8000000AB0122DFF8C40A00686D
:101920008179DFF8BC0A4068007800F0A1FE002849
:1019300002D05FF0FF3074E15FFA88F8B8F1000F71
:1019400008D0DFF89C0A406BC07A50F0E0008DF8B8
:10195000000004E0DFF81807C07A8DF8000000AB43
:101960000122DFF87C0A0068C179DFF8740A406858
:10197000007800F07DFE002802D05FF0FF3050E1DB
:101980005FFA88F8B8F1000F02D0C82000F012FF0B
:1019900040208DF8000000AB0122DFF8440A006807
:1019A0000179DFF83C0A4068007800F061FE002809
:1019B00002D05FF0FF3034E178208DF8000000ABFA
:1019C0000122DFF81C0A00684179DFF8140A406838
:1019D000007800F04DFE002802D05FF0FF3020E1DB
:1019E000DFF88C06808900F0E5FE00208DF800000D
:1019F00000AB0122DFF8E80900684179DFF8E0096F
:101A00004068007800F034FE002802D05FF0FF301C
:101A100007E100AB0222DFF8C8090068017BDFF8AC
:101A2000C0094068007800F056FE002802D05FF040
:101A3000FF30F6E09DF800009DF8011051EA00200B
:101A400081461FFA89F90C2099FBF0F00400002070
:101A5000A860686028600020B0607060306000207E
:101A60000700FFB2E4B2A74260D200AB0C22DFF85D
:101A700070090068417BDFF868094068007800F071
:101A80002AFE002802D05FF0FF30CAE09DF8000077
:101A90009DF8011051EA0020ADF814009DF80200F5
:101AA0009DF8031051EA0020ADF816009DF80400DF
:101AB0009DF8051051EA0020ADF818003068BDF916
:101AC0001410081830607068BDF91610081870609E
:101AD000B068BDF918100818B0609DF806009DF8B0
:101AE000071051EA0020ADF80C009DF808009DF8A1
:101AF000091051EA0020ADF80E009DF80A009DF88B
:101B00000B1051EA0020ADF810002868BDF90C1048
:101B1000081828606868BDF90E1008186860A86881
:101B2000BDF910100818A8607F1C9AE72868C11733
:101B3000090441EA10410004DFF83425126800234B
:101B400001F03EF8E4B22200002301F039F82860E9
:101B50006868C117090441EA10410004DFF8102544
:101B60001268002301F02CF8E4B22200002301F0F7
:101B700027F86860A868C117090441EA1041000409
:101B8000DFF8EC241268002301F01AF8E4B2220016
:101B9000002301F015F8A8603068C117090441EA74
:101BA00010410004DFF8C8245268002301F008F84F
:101BB000E4B22200002301F003F830607068C1171E
:101BC000090441EA10410004DFF8A424526800230C
:101BD00000F0F6FFE4B22200002300F0F1FF706095
:101BE000B068C117090441EA10410004DFF88024FD
:101BF0005268002300F0E4FFE4B22200002300F06A
:101C0000DFFFB060B068012806DBB06800F17F40FC
:101C100010F57F00B06003E0B06810F58030B06070
:101C2000002007B0BDE8F0832DE9F04F89B0040033
:101C30000D000226DFF8A80790F82400002805D040
:101C4000002000F0BBF90120824601E0002082461E
:101C500002A8FEF759FD0DF10100FEF7C5FD01A830
:101C6000FEF735FE0DF10600FEF7A4FEDFF8700763
:101C7000807A814600A8FEF7A0FF00208346F6B2D6
:101C8000B34509DA002229002000FFF773FD002880
:101C900002D01BF1010BF2E7F6B2B34502D10020EE
:101CA000804636E000208346F6B2B34509DA0122C9
:101CB00003A906A8FFF75EFD002802D01BF1010B67
:101CC000F2E7F6B2B34502D10020804621E003A935
:101CD0002800FFF7BBFB8DF8030006A92000FFF7E3
:101CE00003FC8DF80200002080469DF802000028C9
:101CF00001D158F001089DF80300002801D158F0E7
:101D00000208FFF771FC0700FFB2002F01D158F065
:101D10000408FF20DFF8C8160872FF20DFF8C0169D
:101D20004872FF20DFF8B816C8724FF6FF70DFF870
:101D3000B016C881FF20DFF8A8168872FF20DFF8F0
:101D4000A01608740120DFF898160873BDF8080083
:101D5000FEF7F9FC9DF80100FEF76BFDBDF80400ED
:101D6000FEF7DBFDBDF80600FEF738FE4846C0B2C0
:101D7000FEF76EFF9DF80000FEF725FF5FFA8AFA76
:101D8000BAF1000F02D0012000F018F9404609B066
:101D9000BDE8F08F70B582B006000C001500002D74
:101DA00002D15FF0FF303FE0DFF83406807A002890
:101DB00002D15FF0FF3037E0B6B2300A8DF8000094
:101DC00030008DF80100DFF81806406840899DF862
:101DD0000110A4B26118884202DA5FF0FF3023E0FC
:101DE00000AB0222DFF8F8050068C17EDFF8F005DD
:101DF0004068007800F03CFC002802D05FF0FF3023
:101E000012E02B002200D2B2DFF8D4050068017E78
:101E1000DFF8CC054068007800F02AFC002802D0EA
:101E20005FF0FF3000E0002076BD70B582B00600A4
:101E30000C001500002D02D15FF0FF303FE0DFF80D
:101E4000A005807A002802D15FF0FF3037E0B6B2FB
:101E5000300A8DF8000030008DF80100DFF88005B1
:101E6000406840899DF80110A4B26118884202DAE6
:101E70005FF0FF3023E000AB0222DFF8640500686A
:101E8000C17EDFF85C054068007800F0F1FB0028B7
:101E900002D05FF0FF3012E02B002200D2B2DFF858
:101EA00040050068017EDFF838054068007800F0E2
:101EB00012FC002802D05FF0FF3000E0002076BD69
:101EC0002DE9F04385B004000D0016001F0001A8A5
:101ED000102100F00FFFDFF8080590F8250000281A
:101EE00002D05FF0FF3066E0002D02D15FF0FF30DE
:101EF00061E0002081461FFA89F9A4B2A14539D2D8
:101F0000A4B21FFA89F9B4EB0900112802DB5FF0D3
:101F1000100801E0B4EB09081FFA89F919EB050272
:101F2000414689B2484680B2FFF734FF002802D00C
:101F30005FF0FF303FE001AA414689B2484680B2D7
:101F4000FFF773FF002802D05FF0FF3033E01FFA85
:101F500088F8424601A91FFA89F919EB050000F03B
:101F6000CDFE0100002902D07FF0010023E018EB34
:101F70000909C0E7B6B2300A8DF8000030008DF8CC
:101F8000010000AB0222DFF858040068417FDFF84F
:101F900050044068007800F06BFB002802D05FF02E
:101FA000FF3008E00120DFF8381481F82500DFF861
:101FB0003004C784002005B0BDE8F08310B582B0BE
:101FC0000400DFF81C0490F82400E4B2A04201D120
:101FD000002046E0E4B2002C2AD0DFF8040490F898
:101FE0002500002802D15FF0FF303AE00020FEF724
:101FF0007DF80020FFF7B3F8DFF8E403C08CFEF7AC
:10200000EDFC00208DF8000000AB01222321DFF859
:10201000D0034068007800F02BFB0120DFF8C013EC
:1020200081F824000120FEF761F8FEF757FA17E067
:102030000020FEF75BF8DFF8A803007C8DF80000B5
:1020400000AB01222321DFF898034068007800F0FC
:102050000FFB0020DFF8881381F82400FEF73EFA1A
:10206000002016BD7B14AE3E1D5A843F000080BF89
:10207000308A000838B50120FFF771F818200400F5
:10208000E4B21F2C0FDA00AB012200212000C0B205
:1020900000F021FB0500002D03D19DF80000482829
:1020A00001D0641CECE7E4B21F2C02DB5FF0FF30D0
:1020B00038E1E4B26008DFF8541581F82A00002006
:1020C0008DF8000000AB01220A21DFF8400590F8EE
:1020D0002A0000F0CDFA002802D05FF0FF3021E1A5
:1020E000012000F067FB0F208DF8000000AB0122FB
:1020F0000A21DFF8180590F82A0000F0B9FA002844
:1021000002D05FF0FF300DE1012000F053FB00AB87
:1021100003221021DFF8F40490F82A0000F0DBFA23
:10212000002802D05FF0FF30FCE09DF80000803016
:10213000DFF8D81488859DF801008030DFF8CC14D2
:10214000C8859DF802008030DFF8C01408860020A2
:102150008DF8000000AB01220A21DFF8B00490F8EE
:102160002A0000F085FA002802D05FF0FF30D9E0A5
:10217000012000F01FFB0020FEF7F1FF40208DF84A
:10218000000000AB0122DFF884040068817EDFF8E4
:102190007C044068007800F06BFA002802D05FF001
:1021A000FF30BFE0DFF8640490F82A0050F08000B0
:1021B0008DF8000000AB0122DFF850040068817F39
:1021C000DFF848044068007800F052FA002802D096
:1021D0005FF0FF30A6E002208DF8000000AB012286
:1021E000DFF828040068C17FDFF820044068007829
:1021F00000F03EFA002802D05FF0FF3092E0882025
:102200008DF8000000AB0122DFF80004006890F8B0
:102210002010DFF8F8034068007800F029FA002861
:1022200002D05FF0FF307DE0DFF8E00390F82A0095
:102230008DF8000000AB0122DFF8D003006890F8B1
:102240002110DFF8C8034068007800F011FA002878
:1022500002D05FF0FF3065E00A208DF8000000AB8F
:102260000122DFF8A803006890F82210DFF89C0331
:102270004068007800F0FCF9002802D05FF0FF30E1
:1022800050E081208DF8000000AB0122DFF87C03D4
:10229000006890F82310DFF874034068007800F0BD
:1022A000E7F9002802D05FF0FF303BE001208DF815
:1022B000000000AB0122DFF85403006890F82610FC
:1022C000DFF848034068007800F0D2F9002802D017
:1022D0005FF0FF3026E003208DF8000000AB012204
:1022E000CA48006890F82710C8484068007800F095
:1022F000BFF9002802D05FF0FF3013E080208DF896
:10230000000000AB0122C148006890F82910BF48C6
:102310004068007800F0ACF9002802D05FF0FF3090
:1023200000E0002032BD000000B04C4554E3853F82
:102330003EB504000D00B548807AC00702D45FF0B6
:10234000FF304CE000AB0822B048006890F828103D
:10235000AE484068007800F0BEF9002802D05FF077
:10236000FF303CE09DF80000C00702D47FF0010080
:1023700035E09DF80700C021084202D07FF002003E
:102380002DE09DF802009DF8011051EA0020208008
:102390009DF804009DF8031051EA002060809DF82C
:1023A00006009DF8051051EA0020A080B4F9000055
:1023B0009649B1F92C10484300122080B4F902006C
:1023C0009249B1F92E10484300126080B4F904001C
:1023D0008E49B1F9301048430012A08000203EBD64
:1023E00000000020F8B504000D001600F6B2002E23
:1023F00000F0C380A4B2B4F5FF5F02DDFF20070048
:1024000008E0A4B2202C02DA0120070002E0A4B206
:1024100060090700EDB2002D01D101200500F6B2E0
:10242000292E02DB5FF0FF30EEE07848407D002887
:1024300023D1764890F82400002807D00020FFF729
:10244000BDFD0120714981F8200003E000206F49A3
:1024500081F820006E48FEF757F96E48FEF7C4F980
:102460006D48FEF734FA6D48FEF7A4FA6748807AA3
:10247000664988776A48FEF7A0FB0020FDF736FE24
:102480000020FDF7ACFF00208DF8000000AB01221A
:102490005E48006881785D484068007800F0E8F8A0
:1024A000002802D05FF0FF30AEE040208DF8000041
:1024B00000AB012255480068417C544840680078D0
:1024C00000F0D6F8002865D18DF800708DF8015025
:1024D00000AB02224D480068817A4C484068007881
:1024E00000F0C6F8002855D1052000F063F94748F0
:1024F000407AC00050F007008DF8000000AB0122C8
:1025000042480068C17941484068007800F0B0F85E
:1025100000283FD120208DF80000F6B2012E03D113
:1025200000208DF8010010E0F6B2062E03DA01203B
:102530008DF8010009E0F6B2152E03DA02208DF8BD
:10254000010002E003208DF801009DF801008001E8
:1025500050F007008DF8010000AB02222B48006804
:10256000417D2A484068007800F082F8002811D1A7
:10257000012026494875002046E0254A0020010038
:102580000C2904D2885C002804D1491CF8E75FF0CC
:10259000FF3039E0FF201D490872FF201B494872B7
:1025A000FF201A49C8724FF6FF701849C881FF20F2
:1025B00016498872FF2015490874012013490873D1
:1025C0001248807FFEF744FB1048C08AFEF7BBF834
:1025D0000E48007EFEF72DF90C48408BFEF79DF962
:1025E0000A48808BFEF7FAF90848C07FFEF7EBFA3D
:1025F000064890F82000002802D00120FFF7DEFCFA
:102600000020024948750020F2BD000000000020B3
:1026100016000020180000201A0000201C000020D6
:102620001F00002080B500F008F800F01CF801BD84
:1026300080B5564800F072FC01BD80B5534800F0EB
:10264000A7FC53485149C969086002204F49C87026
:102650004FF410604D4948614E484C4948604E481F
:102660004A49886001BD80B5484800F0AAFB01BD19
:10267000F8B504000D0016001F0000204349486112
:10268000444842494860F6B24048406846603F4886
:1026900040680760E4B23D4840688460EDB23B4862
:1026A0004068C560394800F0A8FC002810D13748C0
:1026B000007B012803D03548007B1028F7D1334830
:1026C000007B102802D15FF0FF3003E0002001E022
:1026D0005FF0FF30F2BDF8B504000D0016001F00DA
:1026E000F6B2002E01D100202CE0002027494861DD
:1026F000294826498860F6B2244880684660234805
:1027000080680760E4B2214880688460EDB21F48A9
:102710008068C5601D4800F0DDFC002810D11B4812
:10272000007B012803D01948007B1028F7D11748F7
:10273000007B102802D15FF0FF3003E0002001E0B1
:102740005FF0FF30F2BD80B5124810494860D020DC
:102750000E49496888600D4800F0F5FD02BD80B55E
:10276000FFF7F1FF012809D10C480068002805D0C7
:102770000A480068401E09490860F1E707480068F8
:10278000002801D1002000E0012002BD8C000020C3
:10279000A086010054020020640200208C01002069
:1027A00001B40098002803D00098401E0090F8E77C
:1027B00001B0704781B080B200281CD00021ADF874
:1027C0000210BDF80210B1F5FA7F12DA0021ADF85F
:1027D0000010BDF80010052905DABDF80010491CED
:1027E000ADF80010F5E7BDF80210491CADF8021075
:1027F000E7E7401EDFE701B07047100E62F30F22DB
:1028000062F31F42401810F0030308D0C91A1FD307
:10281000DB0748BF00F8012D28BF20F8022D130068
:1028200030B414461546103928BF20E93C00FAD8C8
:10283000490728BF20E90C0048BF40F8042D890053
:1028400028BF20F8022D48BF00F8012D30BC70478A
:10285000C91818BF00F8012DCB0728BF00F8012DBB
:102860007047110F10B584B004000121112001F050
:1028700098FB4FF40070ADF8000004208DF80300C1
:1028800000A9194801F0CEFBE4B2012C12D10921B4
:10289000022001F075FC4FF40070019000208DF8CB
:1028A000080008208DF8090001208DF80A0001A811
:1028B00001F090FC1FBD10B582B0040017208DF808
:1028C00000000E208DF8010000208DF802008DF828
:1028D000034000A801F0E9FC13BD80B54FF400717E
:1028E000014801F03AFC02BD00100140FF2212EA4B
:1028F000D05C1DBF12EAD153944593422BE09C4417
:10290000D30780EA01021A4043EA002043EA01218A
:10291000A1FB0030410038BF40007CF17F010BDBA0
:10292000FE294ADA5B0842EAC15153EA006373F1B7
:10293000004C51EB10207047D1F1080CDCF1200164
:102940002FDB5B0810FA01F10B4373F1004120FA11
:102950000CF05041704794451CBF02EAD15393429A
:1029600080EA010202F000421DD0400019D0490067
:1029700017D05BB9634514D00902B1FA81F39940CD
:10298000BCEB030CC00140F00040C1E70002B0FA0C
:1029900080FC10FA0CF0B3EB0C0CC90141F00041C3
:1029A000B6E71000704740000AD0490008D010F187
:1029B000807F94BF11F1807F02E042F0FF407047BA
:1029C000D0437047002848BF40427047002840F17C
:1029D0000980F446404200F005F850F0004060479E
:1029E000002800BF0AD0B0FA80F18840D1F19D01E3
:1029F000C905020672F1004241EB102070471F2109
:102A000010B5FF2313EAD0541DBF13EAD1529C42E4
:102A10009A4239E0A41ADA0780EA0103134042EA35
:102A2000012142EA0020421A3CBF641E01EB42022F
:102A3000090AB2FBF1FE01FB1E221202B2FBF1F009
:102A400001FB10226EF30F201202B2FBF1FE4EEAE0
:102A500000207F3406DDFE2C24DA53EA500050EBD0
:102A6000C45010BDD4F1020401FB1E2240F080715D
:102A7000192C1DDC21FA04F0C4F12004A1401143FB
:102A800071F10042584110BD9C421ABF03EAD15275
:102A90009A420FE080EA010E0EF00043400004D09D
:102AA000490016D143F0FF4010BD490008BFD34391
:102AB000180010BD9C4205D1D21AF7D001F0004198
:102AC000484010BD4A0212BF0846484000F000408E
:102AD00010BD4AB90902B1FA81F2914044B1A4187B
:102AE000C00140F000409EE7C90141F00041524260
:102AF0000002B0FA80F4A040141B94E740EA010CF5
:102B00005FEA4C0C07D0884205D14FEA400C1CF11B
:102B1000807F98BF8042704790EA010F44BF81F0E8
:102B2000004101F003BC00BF421A3CBF801A891863
:102B30004FF0004CC0F3C752FF2A24D0C1F3C75353
:102B400013B3D21AD2F1190327DD4CEA01214CFA52
:102B500003F321EA0303D140C20D4CEA00204018E0
:102B600034BF20EA0C004CEA5000D20553EA00635F
:102B700073EB0C0C52EB1020420012F1807F38BF37
:102B80007047C00DC0057047490212BF9A4200EB62
:102B90005120F8E7D2F11703D9D570474FF0807C68
:102BA0001CEB400F94BF1CEB410F05E040EA010C09
:102BB0005FEA4C0C01D28842704718BF81427047CF
:102BC00013F0004C03D55B42524263F100039CEAD0
:102BD000210C00F0178010B5644603D349424042EF
:102BE00061F1000100F00EF8640004D34942404254
:102BF00061F10001244203D55B42524263F10003BC
:102C000010BD00001B4213D1094236D12AB18446BF
:102C1000B0FBF2F002FB10C2704701F0F3BBFCD333
:102C20000022002370470B000200002100207047A3
:102C3000904271EB030CF6D370B5B1FA81F4B3FA9C
:102C400083F52C1BA340C4F1200532FA05F633436B
:102C5000A2405FF00046E64002E05B085FEA320215
:102C6000841A71EB030524BF204629467641F4D32C
:102C700002000B003000002170BD012ACFD970B5D1
:102C8000140C20D0B1FA81F4B2FA82F5C4F1200418
:102C90006419B4F12006D6D3B2405FF00044F4408A
:102CA000002502E052085FEA3303C61A71EB020EF8
:102CB00024BF3046714664416D41F3D302000B00DE
:102CC0002000290070BD0C46B1FBF2F102FB11455A
:102CD0002D0445EA1045B5FBF2F402FB145580B211
:102CE00040EA0545B5FBF2F002FB105240EA044011
:102CF00070BD2022002201F087BB020203000020E9
:102D000013F0030F09D0521E22BF13F8010B11F864
:102D100001CBB0EB0C00F3D07047121F22BF53F869
:102D2000040B51F804CB6045F7D0121D0AD200BA4B
:102D30009CFA8CFCB0EB0C0038BF6FF0000088BF31
:102D400001207047521E22BF13F8010B11F801CB6E
:102D5000B0EB0C00F6D0521C08BF104670470000C4
:102D600010B440B2002809D50A01DFF8343D40B262
:102D700010F00F04E31803F8042C04E00A01DFF854
:102D8000243D40B2C25410BC704710B50400B4F1E9
:102D9000807F01D3012013E02002000A401EDFF8EB
:102DA000081D08600F215FF0FF30FFF7D9FF0020FA
:102DB000DFF8F81C08600720DFF8F41C086000202A
:102DC00010BD10B50400207B012806D0207B102800
:102DD00003D0207B002840F09F80E078012803D1B9
:102DE00010202073012098E0DFF8C80C217850F8FB
:102DF000210000884FF6FE710840DFF8B81C2278E9
:102E000051F822100880207801F084FB207801F02E
:102E100030FBE078022803D16178207801F02FFCA4
:102E2000207801F00BFB207801F03EFBDFF8840CEA
:102E3000217850F82100008850F00100DFF8741C60
:102E4000227851F822100880E169DFF8680C2278B6
:102E500050F8220001F05EFD6069C0020DD5DFF878
:102E6000540C217850F82100008850F04000DFF821
:102E7000441C227851F822100880207DC0072DD5EF
:102E8000DFF8300C217850F82100808950F00100E3
:102E9000DFF8201C227851F822108881DFF8140C0A
:102EA000217850F8210080894FF601710840DFF841
:102EB000041C227851F822108881DFF8F80B217861
:102EC00050F821008089217DC9B211F0FE0108432C
:102ED000DFF8E01B227851F822108881E078022880
:102EE00004D162696178207801F03CFB6169207847
:102EF00001F0D9FB01202073DFF8D00C00684FF4FB
:102F00007A71B0FBF1F0FFF740FF00215FF0FF3076
:102F1000FFF726FF002000E0012010BD10B50400DF
:102F2000207B012805D0207B102802D0207B0028A0
:102F30002CD1207801F0EEFADFF8780B217850F8E8
:102F4000210000884FF6FE710840DFF8681B2278E8
:102F500051F822100880207801F08BFAE0780228DE
:102F600003D16178207801F08AFB6169207801F053
:102F700053FC00202073002020615FF0FF30A0612F
:102F80000020DFF82C1B0860002000E0012010BDAD
:102F90000100DFF83C0CDFF83C2C10600020DFF86B
:102FA000342C90804BF6FF70DFF8282CD080002066
:102FB000DFF8202C10814FF48060DFF8182C50814E
:102FC0004FF48040DFF80C2C9081032048700020E3
:102FD00088700220C87000204860002088600020AF
:102FE000087300200861002048615FF0FF308861AD
:102FF000DFF8E00BC8610020704710B50400207BAB
:10300000800705D4207B032802D0207B052801D12E
:1030100001205EE0207B002801D1012059E0207BC7
:10302000102801D1012054E0022020736069C00102
:1030300020D40B20A061DFF87C0A217850F8210011
:10304000008B10F00200002811D0A06901280ED0DA
:10305000A06910F1010F0AD0A069012803D0A0696E
:1030600010F1010FE7D1200000F0E4FC31E05FF047
:10307000FF30A0616069C00302D4A078012803D1A9
:103080000121200000F073FE03202073A0780028A7
:1030900010D1DFF8200A217850F82100008850F480
:1030A0008070DFF8101A227851F8221008801F2053
:1030B000A061FFE7DFF8FC09217850F82100808843
:1030C00050F40070DFF8EC19227851F82210888053
:1030D000002010BD10B50400207B800705D4207BA4
:1030E000032802D0207B052801D101202AE1207B82
:1030F000002801D1012025E1207B102801D10120E9
:1031000020E1022020736069C00120D40B20A0615F
:10311000DFF85C0D217850F82100008B10F00200E0
:10312000002811D0A06901280ED0A06910F1010F6C
:103130000AD0A069012803D0A06910F1010FE7D1DE
:10314000200000F077FCFDE05FF0FF30A061E07848
:10315000022809D1A0684068012805D1606950F4AF
:10316000001060610120E0706069C00300F1BE8062
:10317000A078002840F0BA80DFF8F40C217850F8ED
:103180002100008850F48070DFF8E41C227851F8A8
:10319000221008801F20A061DFF8D40C217850F89D
:1031A0002100808A10F00100002811D1A0690128B7
:1031B0000ED0A06910F1010F0AD0A069012803D038
:1031C000A06910F1010FE7D1200000F033FCB9E055
:1031D0005FF0FF30A061E0698089B0F5804F2AD1AF
:1031E000A068007A10F0FE00DFF8841C227851F805
:1031F000221008820420A061DFF8740C217850F8B6
:103200002100808A10F00200002811D1A069012855
:103210000ED0A06910F1010F0AD0A069012803D0D7
:10322000A06910F1010FE7D1200000F003FC89E054
:103230005FF0FF30A061DFF8380C217850F82100F2
:10324000808ADFF82C0C217850F82100008B0320B5
:10325000A061DFF81C0C217850F82100808A10F062
:103260008000002811D1A06901280ED0A06910F1BA
:10327000010F0AD0A069012803D0A06910F1010F45
:10328000E7D1200000F0D6FB5CE05FF0FF30A061EA
:103290006069800329D4A068C068C0B2DFF8D01B81
:1032A000227851F8221008820320A061DFF8C00BB9
:1032B000217850F82100808A10F08000002811D178
:1032C000A06901280ED0A06910F1010F0AD0A069F1
:1032D000012803D0A06910F1010FE7D1200000F010
:1032E000A9FB2FE05FF0FF30A06106E0E078022844
:1032F00003D10221200000F03AFD05202073A078C0
:10330000002810D1DFF8680B217850F821000088E0
:1033100050F48070DFF8581B227851F82210088092
:103320001F20A061FFE7DFF8480B217850F821004B
:10333000808850F40070DFF8381B227851F8221092
:103340008880002010BD10B582B004004FF6FF70D9
:10335000009002202073DFF8180B217850F821002C
:1033600080884FF6FF610840DFF8041B227851F88F
:1033700022108880DFF8F80A217850F821000088B0
:103380004FF6FE710840DFF8E81A227851F8221053
:103390000880DFF8DC0A217850F82100008850F01E
:1033A0000100DFF8CC1A227851F822100880DFF8EB
:1033B000C00A217850F82100008850F48070DFF8AE
:1033C000B01A227851F8221008801F20A061DFF87F
:1033D000A00A217850F82100808A10F0010000280E
:1033E00011D1A06901280ED0A06910F1010F0AD0F7
:1033F000A069012803D0A06910F1010FE7D12000D6
:1034000000F018FB7CE05FF0FF30A0616068007A9C
:1034100010F0FE00DFF8581A227851F822100882C6
:10342000DFF84C0A217850F82100808A10F0020061
:10343000002804D10098411E00910028F0D1009886
:10344000002801D101205BE04FF6FF30DFF8201AA1
:10345000227851F822108882DFF8140A217850F877
:103460002100008850F40070DFF8041A227851F827
:1034700022100880DFF8F809217850F82100008B2D
:1034800010F002000028F5D1DFF8E409217850F8A7
:10349000210000884FF6FE710840DFF8D419227829
:1034A00051F822100880DFF8C809217850F821006F
:1034B000008850F00100DFF8B819227851F8221086
:1034C0000880DFF8AC09217850F82100008850F41A
:1034D0008060DFF89C19227851F822100880DFF80C
:1034E0009009217850F82100808850F48070DFF82E
:1034F0008019227851F82210888001202073002042
:1035000016BD10B582B004000020ADF80000DFF851
:10351000A405217850F82100808A10F0DF00ADF872
:103520000000A07800281AD1BDF80000C00703D51C
:10353000200000F08CFA13E0BDF80000800703D5EE
:10354000200000F0B9FA0BE0BDF80000400606D5F7
:10355000207B0A2803D1200000F03EFB00E0002081
:1035600016BD10B50400A078012812D1606840682B
:1035700000280ED1207B012802D0207B062808D10C
:103580004FF2FF00DFF8E818227851F82210888205
:1035900058E0DFF8DC08217850F82100808A10F428
:1035A00070602061102020734FF2FF00DFF8C01818
:1035B000227851F8221088822069C0051BD5DFF8D7
:1035C000B008217850F82100008850F40040DFF85E
:1035D000A018227851F822100880DFF8940821788A
:1035E00050F8210000884004400CDFF8841822784D
:1035F00051F822100880206980051BD5DFF870087B
:10360000217850F82100008850F40040DFF860185D
:10361000227851F822100880DFF85408217850F8F9
:10362000210000884004400CDFF84418227851F84B
:103630002210088020690005206940052169207852
:1036400001F0F9F9002010BD10B504005FF0FF3063
:10365000A061DFF82008217850F821000068DFF829
:103660001818227851F82210084200F08A800020B1
:1036700061684860A078002840F07F80606940045D
:103680007BD4DFF83004217850F8210080884FF295
:10369000FF710840DFF81C14227851F8221088804E
:1036A0000520A061DFF80C04217850F82100808A01
:1036B00010F00400002811D1A06901280ED0A069E3
:1036C00010F1010F0AD0A069012803D0A06910F100
:1036D000010FE7D1200000F0ADF98EE05FF0FF3080
:1036E000A061DFF8D003217850F82100008850F461
:1036F0000070DFF8C013227851F8221008800B20E8
:10370000A061DFF8B003217850F82100008B10F0A1
:103710000200002811D0A06901280ED0A06910F184
:10372000010F0AD0A069012803D0A06910F1010F90
:10373000E7D1200000F07EF95FE05FF0FF30A0618C
:10374000DFF83807217850F8210000684008400071
:10375000DFF82817227851F822100860D548217820
:1037600050F8210080884FF6FF510840D149227857
:1037700051F82210888001202073200001F059F9AF
:1037800023E0DFF8F006217850F821000068DFF828
:10379000F016227851F82210084216D1DFF8D4062C
:1037A000217850F821000068DFF8D816227851F807
:1037B0002210084209D010202073DFF8C0062178BB
:1037C00050F82100406861684860DFF8AC06217855
:1037D00050F82100DFF8A816227851F8221008438B
:1037E000DFF8A016227851F822100843DFF884167B
:1037F000227851F822104860002010BD10B5040056
:103800005FF0FF30A061DFF86C06217850F82100EE
:103810000068DFF87416227851F82210084200F090
:1038200082800020A1684860A078002840F09F8036
:103830006069000473D46069000239D49D4821781E
:1038400050F82100008850F400709A49227851F80D
:10385000221008809748217850F8210080884FF284
:10386000FF7108409349227851F8221088800B207C
:10387000A0619048217850F82100008B10F00200E0
:10388000002811D0A06901280ED0A06910F1010F05
:103890000AD0A069012803D0A06910F1010FE8D176
:1038A000200000F0C7F87AE05FF0FF30A0610CE084
:1038B0008048217850F8210080884FF2FF7108403D
:1038C0007C49227851F822108880DFF8C0052178E1
:1038D00050F82100006840084000DFF8B015227859
:1038E00051F8221008607348217850F82100808830
:1038F0004FF6FF5108406F49227851F82210888016
:103900006C48217850F8210080884EF6FF710840FD
:103910006849227851F82210888001202073200005
:1039200001F088F823E0DFF84C05217850F82100F9
:103930000068DFF85C15227851F82210084216D191
:10394000DFF83005217850F821000068DFF84415D1
:10395000227851F82210084209D010202073DFF895
:103960002C05217850F821004068A1684860DFF8F4
:103970001805217850F82100DFF81415227851F845
:1039800022100843DFF80C15227851F82210084362
:10399000DFF8E014227851F822104860002010BDB2
:1039A00010B5002400200400022C42D2DFF8E80405
:1039B00050F8240000283AD0DFF8DC0450F8240046
:1039C0008069002820D15FF0FF30DFF8CC1451F877
:1039D000241088611020DFF8C01451F824100873F7
:1039E000DFF8B40450F82400006900281FD1FF203C
:1039F000DFF8A41451F824100861DFF89C0450F893
:103A0000240001F007F812E0DFF88C0450F82400DD
:103A1000806910F1010F0AD0DFF87C0450F824000F
:103A20008069401EDFF8701451F824108861641C0E
:103A3000BAE710BD10B504005FF0FF30A0611020A0
:103A40002073FF202061200000F0E4FF10BD010082
:103A50005FF0FF308861C8698089B0F5804F1CD164
:103A6000087B05280CD18868806850F00100C0B23E
:103A7000104A0B7852F8232010820A2008730AE0BB
:103A80004868007A10F0FE000A4A0B7852F82320AA
:103A9000108206200873042088610020704700000F
:103AA00018ED00E000E400E014E000E018E000E0C1
:103AB00010E000E04401002010B50400E078022886
:103AC00003D05FF0FF30A06112E0207B062804D114
:103AD00060684068401CA0610AE0207B0A2804D18D
:103AE000A0684068401CA06102E05FF0FF30A06168
:103AF000207B0A2806D1E078012803D1022120008A
:103B000000F035F9DFF86803217850F82100808A49
:103B1000DFF85C03217850F82100008B207B0A2815
:103B20001CD1A0684068012818D1D148217850F8EC
:103B3000210000884FF6FF310840CD49227851F826
:103B400022100880CA48217850F82100008850F4DB
:103B50000070C749227851F8221008806069C003BC
:103B600031D4207B06282AD16069800327D460687D
:103B7000C068C0B2BE49227851F8221008820320E2
:103B8000A061BB48217850F82100808A10F08000A5
:103B9000002811D1A06901280ED0A06910F1010FF1
:103BA0000AD0A069012803D0A06910F1010FE8D163
:103BB0002000FFF73FFF07E05FF0FF30A061032127
:103BC000200000F0D4F8002010BD00009401002077
:103BD000A08601002402002010B50400E07801282E
:103BE00040F0C380A068406802282BD1A04821780B
:103BF00050F82100008AA168096808709C48217863
:103C000050F8210000884FF6FF310840984922788B
:103C100051F8221008809648217850F82100008839
:103C200050F400709249227851F822100880A06860
:103C30004068401EA1684860A0680068401CA168F8
:103C4000086023E0A068406801280DD188482178E9
:103C500050F82100008AA16809680870A0684068CF
:103C6000401EA168486011E08148217850F8210089
:103C7000008AA16809680870A0680068401CA168F3
:103C80000860A0684068401EA1684860A06840685D
:103C900000286AD17648217850F8210080884FF6B4
:103CA000FF5108407249227851F8221088807048EC
:103CB000217850F8210080884FF6FF3108406C4988
:103CC000227851F8221088806948217850F8210024
:103CD000808A6748217850F82100008A6069800254
:103CE00005D5606930F4001060610220E0700B209F
:103CF000A0615F48217850F82100008B10F002008D
:103D0000002811D0A06901280ED0A06910F1010F80
:103D10000AD0A069012803D0A06910F1010FE8D1F1
:103D20002000FFF787FE21E05FF0FF30A0615048E0
:103D3000217850F82100008850F480604C492278A6
:103D400051F8221008804A48217850F82100008854
:103D50004FF2FF7108404649227851F8221008803E
:103D600001202073200000F065FE002010BD38B552
:103D700004000D00E078012802D002280ED073E084
:103D80003B48217850F82100808850F48060384901
:103D9000227851F822108880002068E03448217889
:103DA00050F8210080884FF6FF51084030492278B2
:103DB00051F8221088802E48217850F82100808800
:103DC00050F400602A49227851F822108880207B24
:103DD000062802D0EDB2012D1ED1626961682078FB
:103DE00000F005FC2248217850F8210080884EF62A
:103DF000FF7108401E49227851F8221088801F4820
:103E0000217850F82100006850F001001B49227809
:103E100051F82210086025E0207B0A2802D0EDB27C
:103E2000022D1FD16269A168207800F004FCA078FF
:103E300000280BD10E48217850F82100808850F4DA
:103E400080500B49227851F8221088800F48217841
:103E500050F82100006850F001000C49227851F818
:103E600022100860002002E010202073012032BDE3
:103E7000440100206C010020F08B00085C01002050
:103E8000F88B0008008C0008088C000864010020F2
:103E9000108C0008188C00083C010020584908606C
:103EA000704770B40021002200230024534D2D6878
:103EB00015F00C0529000D00002D04D0042D05D0AF
:103EC000082D06D026E04F4D056025E04D4D0560DC
:103ED00022E04A4D2D6815F470152A00474D2D68D3
:103EE00015F480352B00920C921C002B04D1464D0A
:103EF00005FB02F505600CE0404D2D68AD0304D5CF
:103F0000414D05FB02F5056003E03E4D05FB02F562
:103F1000056001E03B4D0560384D2D6815F0F0055A
:103F200029000909394D4D5D2C0005682E00E64039
:103F30004660324D2D6815F4E0652900090A334DBD
:103F40004D5D2C0045682E00E64086602B4D2D68A7
:103F500015F460552900C90A2C4D4D5D2C004568AB
:103F60002E00E640C660254D2D6815F44045290019
:103F7000890B274D4D5D2C00C568B5FBF4F5056137
:103F800070BC7047C9B2002905D0224A12680243AA
:103F9000204B1A6004E01F4A126882431D4B1A60CE
:103FA0007047C9B2002905D01B4A126802431A4B58
:103FB0001A6004E0184A12688243174B1A6070476F
:103FC000C9B2002905D0154A12680243134B1A6082
:103FD00004E0124A12688243104B1A607047C9B25B
:103FE000002905D00E4A126802430D4B1A6004E006
:103FF0000B4A126882430A4B1A6070470410024051
:10400000D800424200127A0000093D002001002041
:104010009001002014100240181002401C100240B1
:1040200010100240F0B500270022002300240025D4
:10403000002691F803C01CF00F0C674691F803C0EE
:104040005FEACC6C03D591F802C05CEA070791F8EF
:1040500000C05FEA0C6C3AD0D0F800C065465FF053
:10406000000C6346082B31D25FF0010C1CFA03FCF4
:104070006446B1F800C014EA0C0C6246A24223D197
:104080005FEA830C64465FF00F0C1CFA04FC664682
:10409000B54317FA04FC5CEA050591F803C0BCF1CE
:1040A000280F06D15FF0010C1CFA03FCC0F814C005
:1040B0000AE091F803C0BCF1480F05D15FF0010C94
:1040C0001CFA03FCC0F810C05B1CCBE70560B1F81C
:1040D00000C0BCF1FF0F3FDDD0F804C065465FF0C3
:1040E000000C6346082B36D25FF0010C13F1080E6A
:1040F0001CFA0EFC6446B1F800C014EA0C0C6246CF
:10410000A24226D15FEA830C64465FF00F0C1CFAD2
:1041100004FC6646B54317FA04FC5CEA050591F811
:1041200003C0BCF1280F07D15FF0010C13F1080E9A
:104130001CFA0EFCC0F814C091F803C0BCF1480F83
:1041400007D15FF0010C13F1080E1CFA0EFCC0F849
:1041500010C05B1CC6E74560F0BD020000209368FC
:1041600089B20B4202D00123180001E0002318009D
:10417000C0B2704789B20161704789B2416170472E
:1041800030B400220F2311F00304E4B2A400A340D2
:104190001A000F4BC9B28C1053F8243093430C4CC7
:1041A000C9B28D1044F82530094BC9B28C1053F8B0
:1041B0002430C0B211F00304E4B2A40010FA04F4F5
:1041C0002343034CC9B28D1044F8253030BC7047EE
:1041D0000800014000212D4A11008279002A36D0C2
:1041E0002A4A126803689A43284B1A60284A1268C0
:1041F00003689A43264B1A60027951180A680368CB
:104200001A430A60234A126803689A43214B1A60D2
:10421000214A126803689A431F4B1A604279102A98
:104220000CD11C4A126803681A431A4B1A601A4AC6
:10423000126803681A43184B1A600EE0134A110003
:10424000427951180A6803681A430A6005E0027946
:1042500051180A6803689A430A60704701000020F9
:1042600000220A4B1B680B401A000C4B1B680B42C8
:1042700004D0002A02D00123180001E00023180016
:10428000C0B2704705490860704700000004014053
:1042900004040140080401400C04014014040140DE
:1042A0001D4901431D4A1160704770B4002400226B
:1042B0000F23C178002922D01849096811F4E06160
:1042C000D1F5E061090A0C00D4F104010A001900DB
:1042D0000B00E340417891400C00817819400C4379
:1042E00024010F4905786C540121057815F01F054C
:1042F000A9400C4D0678761145F8261009E00121F9
:10430000057815F01F05A940074D0678761145F888
:10431000261070BC704700000000FA050CED00E0AC
:1043200000E400E000E100E080E100E0431A4FF02B
:1043300000423EBF5340C01AC91800BFD3095FEA0C
:10434000D05C13EB400F34BFB3EB410F40E07CEB8C
:10435000D1530CD342EA012122D8D1EB402009D31A
:10436000400A28BF5FEA500140EBCC507047401A2A
:1043700015D04002B0FA80F2521C9040400A4FEA39
:104380003C23B3EB026384BF00EB730007E040F40F
:1043900000001A16DB07C2F10102D0401843704733
:1043A000182BFCDC31FA03F202FA03F3591A38BF76
:1043B00042F00102D2EB40203CBF4000ACF1010CC6
:1043C0005FEACC5CC20572F100414CEB50207047B3
:1043D00013EB400F0FD24B0009D0ACEBD153022BA3
:1043E00003DB4902172BDDDD70479143401A430080
:1043F000D5D10020704713EB410FD0D36FF00000F0
:10440000704700007047000000B500BF13009646DB
:104410009446103928BFA0E80C50FAD85FEA417CD6
:1044200028BF0CC048BF40F8042BC90728BF20F89C
:10443000022B48BF00F8012B00BD010110B504009C
:104440000121DFF86804E4B250F82400FFF7C7FD4B
:104450000021DFF85804E4B250F82400FFF7BFFD54
:104460000121DFF84804E4B250F82400FFF7A8FD6A
:1044700010BD10B504000121DFF83004E4B250F89B
:104480002400FFF7ACFD0021DFF82004E4B250F86F
:104490002400FFF7A4FD0021DFF81004E4B250F877
:1044A0002400FFF78DFD10BD10B582B0040001217E
:1044B000DFF8FC03E4B250F82400DFF8F823E4B29C
:1044C00052F824201043FFF76CFD03208DF8020002
:1044D0001C208DF80300DFF8E003E4B230F814008C
:1044E000ADF8000000A9DFF8D403E4B250F82400CE
:1044F000FFF798FDDFF8C803E4B230F81400ADF818
:10450000000000A9DFF8BC03E4B250F82400FFF774
:1045100089FD13BD10B582B0040003208DF80200A0
:1045200004208DF80300DFF89003E4B230F81400A3
:10453000ADF8000000A9DFF88403E4B250F82400CD
:10454000FFF770FDDFF87803E4B230F81400ADF83F
:10455000000000A9DFF86C03E4B250F82400FFF774
:1045600061FD13BD70B504000D0016000121DFF8D8
:104570005803E4B250F82400FFF704FD4FF6FF7033
:10458000DFF84813C8600020DFF84013086180207E
:10459000DFF8381348610020CC4988610020CB49FE
:1045A000C8614FF44050C94948620020C749886239
:1045B000C748E4B250F82400C4490860E80709D5A8
:1045C0001020C2498860C149C248E4B250F82400B2
:1045D00000F0CDFAA80709D50020BC498860BB4986
:1045E000BD48E4B250F8240000F0C1FA70BD70B5C7
:1045F00004000D0016002868B44948606868B34993
:10460000C860B348E4B250F82400B04908607004B0
:1046100003D52020AD49086202E00020AB490862C2
:104620001020AA498860A949AA48E4B250F8240099
:1046300000F09DFA70BD70B504000D0016002868EA
:10464000A24948606868A149C860A148E4B250F82E
:1046500024009E490860300403D520209B4908624D
:1046600002E0002099490862002098498860974933
:104670009948E4B250F8240000F079FA70BD38B5DA
:1046800004000D00E80705D59248E4B250F8240074
:1046900000F0E8F9A80705D58F48E4B250F82400E7
:1046A00000F0E0F931BD38B504000D0000F09AFAD1
:1046B00001208DF803008948E4B2205C8DF80000E9
:1046C0008748E4B2205C8DF801008648E4B2205CA3
:1046D0008DF8020000A8FFF7E8FD68021DD48248AB
:1046E000E4B2205C8DF800008048E4B2205C8DF8D4
:1046F00001007F48E4B2205C8DF8020000A8FFF7BB
:10470000D4FD7C48E4B250F82400808850F48070D6
:104710007849E4B251F82410888015F4E06F3BD05A
:104720007548E4B2205C8DF800007448E4B2205C67
:104730008DF801007248E4B2205C8DF8020000A8F8
:10474000FFF7B3FDE8050BD56248E4B250F824004A
:10475000006850F002005F49E4B251F8241008608C
:10476000A8050BD55B48E4B250F82400006850F06F
:1047700004005849E4B251F82410086068050BD5CC
:104780005448E4B250F82400006850F00800514941
:10479000E4B251F82410086015F4605F3BD059482A
:1047A000E4B2205C8DF800005748E4B2205C8DF83C
:1047B00001005648E4B2205C8DF8020000A8FFF723
:1047C00074FD28050BD54448E4B250F82400006875
:1047D00050F002004049E4B251F824100860E804A7
:1047E0000BD53D48E4B250F82400006850F00400B6
:1047F0003949E4B251F824100860A8040BD53648B2
:10480000E4B250F82400006850F008003249E4B2E5
:1048100051F82410086031BD38B504000D000020A7
:104820008DF8010000208DF8020000208DF80300B3
:104830002A48E4B2205C8DF8000000A8FFF735FD9F
:10484000680207D42848E4B2205C8DF8000000A874
:10485000FFF72BFD15F4E06F07D02748E4B2205C8A
:104860008DF8000000A8FFF720FD15F4605F07D069
:104870002448E4B2205C8DF8000000A8FFF715FD85
:1048800031BD80B52248FEF73CFE02BD80B5204810
:10489000FEF767FE002002BD80B51D48FEF7D4FE7E
:1048A00002BD80B51A48FEF7A9FF02BDC88B0008FB
:1048B000D88B0008E08B0008208C00084C010020F9
:1048C000248C000854010020E88B0008DC01002043
:1048D000D08B00085C01002064010020FE29000844
:1048E000FA2C00085E2D0008F22C00080244000893
:1048F0000644000844010020FA2700083A44000852
:104900000A5B000862280008FA6700084680000871
:104910008C0000202DE9F04385B004000D005FF00D
:10492000000900260427DFF8E080A08881464FF6C2
:10493000C07010EA090900A8FFF7B3FA0298804690
:104940003248B8FBF0F0060056EA0909A4F80490D2
:1049500020884FF6FE71084020800020814628689C
:104960002B4988420ED228684000B8FBF0F00700BF
:10497000BFB2042F01DA0420070057EA0909701CAE
:10498000208426E0E8884BF6FF71884206D128682B
:1049900003214843B8FBF0F0070007E0286819211D
:1049A0004843B8FBF0F0070057F48047380501D1C1
:1049B00057F0010757F4004050EA0909B6B24FF426
:1049C000967000FB06F04FF47A7190FBF1F0401CFA
:1049D0002084A4F81C90208850F0010020802088BA
:1049E00081464FF6F53010EA0909A888698908431D
:1049F00050EA0909A4F80090A88929890843208170
:104A000005B0BDE8F083000000127A0040420F00BC
:104A1000A186010010B50400012020730020206150
:104A20005FF0FF30A061FDF703FEFDF7FBFD002006
:104A300010BD7047704738B504000D000848E4B257
:104A400050F82400008850F400700549E4B251F891
:104A500024100880FDF7ECFDFDF7E4FD31BD0000FA
:104A60004401002001684FF6FE72114001600021F0
:104A7000016000214160002181600021C1604B493B
:104A8000884206D14A49096851F00F01484A11602D
:104A90006CE04849884206D14549096851F0F00167
:104AA000434A116062E04449884206D1404909689E
:104AB00051F470613E4A116058E04049884206D185
:104AC0003B49096851F47041394A11604EE03C4954
:104AD000884206D13649096851F47021344A116080
:104AE00044E03849884206D13149096851F47001DF
:104AF0002F4A11603AE03449884206D12C490968AE
:104B000051F070612A4A116030E03049884206D184
:104B10002F49096851F00F012D4A116026E02D49F7
:104B2000884206D12A49096851F0F001284A1160EB
:104B30001CE02949884206D12549096851F4706171
:104B4000234A116012E02549884206D120490968AC
:104B500051F470411E4A116008E02149884205D194
:104B60001B49096851F47021194A1160704710B44B
:104B7000002203681A006FF30E128B680C6A23433D
:104B80000C6923434C6923438C692343CC69234339
:104B90004C6A23438C6A23431A430260CB68436008
:104BA0000B6883604B68C36010BC7047080002400C
:104BB000040002401C000240300002404400024059
:104BC000580002406C00024080000240080402408D
:104BD000040402401C040240300402404404024029
:104BE0005804024080B54FF4A060FFF759FB01BDA7
:104BF00080B5C823DFF81C0C0288DFF81C1C40F6C7
:104C0000F630FDF75DF902BD2DE9F04387B00400F1
:104C100003A8DFF8081C0A68026002A8DFF8001C7D
:104C20000A68026005A8DFF8FC1B0A68026004A895
:104C3000DFF8F41B0A68026003A8A4B214F00301B1
:104C4000085C8DF8040003A8C4F3C10189B2085CB4
:104C50008DF8050003A8C4F3811189B2085C8DF8B2
:104C6000060002A8A4B214F00301085C8DF800004D
:104C700002A8C4F3C10189B2085C8DF8010002A842
:104C8000C4F3811189B2085C8DF8020001AA0321E6
:104C900040F22640FDF77EF8002802D05FF0FF309A
:104CA00060E000AA032140F22A40FDF773F80028D3
:104CB00002D05FF0FF3055E0032505AE01AF2A00BA
:104CC0003100380000F0E6FE03270DF110080DF169
:104CD00000093A004146484600F0DCFE60070BD56B
:104CE0009DF8040050F001008DF804009DF80000CC
:104CF00050F001008DF80000A0060BD59DF80500CE
:104D000050F001008DF805009DF8010050F0010001
:104D10008DF80100E0050BD59DF8060050F001006C
:104D20008DF806009DF8020050F001008DF8020099
:104D300001AA03214FF48860FDF72CF8002802D067
:104D40005FF0FF300EE000AA032140F23140FDF792
:104D500021F8002802D05FF0FF3003E0DFF8040DF7
:104D60000481002007B0BDE8F0831FB50400DFF820
:104D7000F40C007A10F0030054F820000190DFF8E2
:104D8000E40C007A400704D501985FF0FF314843F6
:104D90000190DFF8D00C0089C0F3C10080B254F854
:104DA00020000290DFF8BC0C007A800604D502983F
:104DB0005FF0FF3148430290DFF8A80C0089C0F390
:104DC000811080B254F820000390DFF8980C00891D
:104DD000C00504D503985FF0FF3148430390019864
:104DE000DFF8841C81FB0001800F40EA81008917F5
:104DF00001900298DFF8701C81FB0001800F40EAEF
:104E00008100891702900398DFF85C1C81FB000188
:104E1000800F40EA810089170390019800168DF8F1
:104E20000000019800148DF80100019800128DF81F
:104E3000020001988DF8030000AA04214FF4747059
:104E4000FCF7A8FF002802D05FF0FF302EE00298A8
:104E500000168DF80000029800148DF801000298E9
:104E600000128DF8020002988DF8030000AA0421B8
:104E70004FF47570FCF78EFF002802D05FF0FF3012
:104E800014E0039800168DF80000039800148DF8C4
:104E90000100039800128DF8020003988DF80300BA
:104EA00000AA04214FF47670FCF774FF04B010BD23
:104EB00070B588B0060006A8FBF757FEBDF81800CD
:104EC0000021C90341EA5041C00304000D00DFF88E
:104ED000940B007A10F0030056F820000090DFF8E1
:104EE000840B007A400704D500985FF0FF314843F7
:104EF0000090DFF8700B0089C0F3C10080B256F853
:104F000020000190DFF85C0B007A800604D5019840
:104F10005FF0FF3148430190DFF8480B0089C0F390
:104F2000811080B256F820000290DFF8380B00891B
:104F3000C00504D502985FF0FF3148430290009A03
:104F4000D317A4FB020104FB031105FB0211800F20
:104F500040EA810089170090019AD317A4FB02014F
:104F600004FB031105FB0211800F40EA8100891741
:104F70000190029AD317A4FB020104FB031105FB65
:104F80000211800F40EA81008917029000980016F4
:104F90008DF80C00009800148DF80D000098001298
:104FA0008DF80E0000988DF80F00019800168DF80E
:104FB0001000019800148DF81100019800128DF86E
:104FC000120001988DF81300029800168DF8140055
:104FD000029800148DF81500029800128DF8160042
:104FE00002988DF8170003AA0C214FF42570FCF7E6
:104FF000D1FE08B070BD30B585B0040002A8DFF85E
:105000006C1A2CC92CC00C390C38A4B2C92C02DB88
:105010005FF0FF3026E0C820A4B290FBF4F0401E01
:105020000500ADB2280A8DF8000028008DF80100B7
:1050300000AA022140F21620FCF7ACFE002802D0A4
:105040005FF0FF300EE002AA0C2140F6C120FCF711
:10505000A1FE002802D05FF0FF3003E0DFF8040A71
:105060008481002005B030BD0100DFF8F809808997
:105070000880002070472DE9FC4104000D00072046
:10508000044203D0ADB2B5F5C86F02DD5FF0FF306A
:10509000B9E0ADB22800FDF7A3FCDFF8D419FDF7A5
:1050A000AFFC060001A8FBF79FFB9DF80400022857
:1050B00006D0042815D0082824D0102833D043E087
:1050C0005FF08D403100FDF711FC00F01FFD07007F
:1050D000DFF8A0093100FDF709FC00F017FD80465C
:1050E00035E05FF08C403100FDF700FC00F00EFD74
:1050F0000700DFF884093100FDF7F8FB00F006FD3A
:10510000804624E05FF08B403100FDF7EFFB00F0BC
:10511000FDFC0700DFF864093100FDF7E7FB00F054
:10512000F5FC804613E05FF08A403100FDF7DEFBBE
:1051300000F0ECFC0700DFF848093100FDF7D6FB72
:1051400000F0E4FC804602E05FF0FF305BE0BFB2BD
:10515000380A8DF8000038008DF801001FFA88F831
:105160005FEA18208DF8020040468DF80300E00742
:1051700016D500AA02214FF4EA70FCF70BFE0028B6
:1051800002D05FF0FF303EE00DF1020202214FF449
:105190009270FCF7FFFD002802D05FF0FF3032E094
:1051A000A00716D500AA02214FF4EC70FCF7F2FD1F
:1051B000002802D05FF0FF3025E00DF1020202214D
:1051C0004FF49470FCF7E6FD002802D05FF0FF304A
:1051D00019E0600716D500AA02214FF4EE70FCF723
:1051E000D9FD002802D05FF0FF300CE00DF1020283
:1051F00002214FF49670FCF7CDFD002802D05FF03D
:10520000FF3000E00020BDE8F68110B582B0040058
:1052100000208DF80000E00705D59DF8000050F053
:1052200030008DF80000A00705D59DF8000050F073
:105230000C008DF80000600705D59DF8000050F0C7
:1052400003008DF8000000AA01214FF4A470FCF7C0
:10525000A1FD16BD10B582B00400E4B2002C02D14D
:105260000120040004E0E4B2052C01DB042004006A
:10527000601E8DF8000000AA012140F24F10FCF7DB
:1052800089FD16BD38B50400A4B2052094FBF0F0EA
:105290000500ADB2280A8DF8000028008DF8010045
:1052A00000AA02214FF4EF70FCF774FD32BD38B54F
:1052B0000400A4B2052094FBF0F00500ADB2280A6A
:1052C0008DF8000028008DF8010000AA02214FF49B
:1052D000ED70FCF75FFD32BD70B582B004000D00CB
:1052E0004FF47A7094FBF0F0ADB205FB00F6301687
:1052F0008DF8000030148DF8010030128DF8020096
:1053000030008DF8030000AA04214FF4AE70FCF7C2
:1053100041FD76BD10B582B00400A4B2052094FB17
:10532000F0F4A4B2200A8DF8000020008DF80100EE
:1053300000AA02214FF4AD70FCF72CFD16BD10B58C
:1053400082B00400A4B2052094FBF0F4A4B2200AB9
:105350008DF8000020008DF8010000AA02214FF412
:10536000AC70FCF717FD16BD10B582B00400002C20
:1053700002D15FF0FF301AE000AA04214FF4587008
:10538000FCF753FD002802D05FF0FF300FE09DF8DE
:1053900000009DF80110090451EA00609DF8021018
:1053A00050EA01209DF8031008432060002016BD3C
:1053B00010B582B00400200E8DF80000200C8DF88E
:1053C0000100200A8DF8020020008DF8030000AAD9
:1053D00004214FF45870FCF7DDFC16BD10B582B007
:1053E0000400002C02D15FF0FF301CE000AA042171
:1053F0004FF47170FCF719FD002802D05FF0FF3008
:1054000011E09DF800009DF80110090451EA0060C8
:105410009DF8021050EA01209DF803100843142162
:1054200048432060002016BD10B582B0040014204F
:10543000B4FBF0F4200E8DF80000200C8DF8010074
:10544000200A8DF8020020008DF8030000AA042134
:105450004FF47170FCF79EFC16BD10B584B00400CB
:1054600002208DF80000CA208DF80100E3208DF89D
:10547000020009208DF8030000AA04216820FCF72F
:1054800089FCA3208DF80000600609D5C0208DF8A6
:105490000100C8208DF80200C2208DF8030008E04A
:1054A000A3208DF80100A3208DF80200A3208DF821
:1054B00003004FF4C070044209D0C4208DF80400EA
:1054C000CC208DF80500C6208DF8060008E0A3204A
:1054D0008DF80400A3208DF80500A3208DF80600A8
:1054E000A3208DF80700A3208DF80800A3208DF8D5
:1054F000090000AA0A2140F6A720FCF74BFC032074
:10550000044203D020208DF8000002E0D8208DF85E
:10551000000000AA012140F6B620FCF73BFCA006E3
:1055200003D5012000F0B1F802E0002000F0ADF852
:105530004FF4C070044220D0E0050CD5B2208DF8A5
:1055400000008B208DF80100B6208DF802009B2012
:105550008DF803000BE0B0208DF8000080208DF85E
:105560000100B4208DF8020090208DF8030000AAFD
:10557000042140F6A220FCF70DFCE00725D5F82019
:105580008DF8000000AA01214FF40B60FCF702FC2B
:10559000FA210720FFF76FFD0720FFF736FE0120F5
:1055A000FFF758FE6420FFF76DFE4FF4FA70FFF727
:1055B0007EFEC821DFF8B004FFF78EFE2820FFF73B
:1055C000A9FE0A20FFF7BBFE08E0D8208DF80000F6
:1055D00000AA01214FF40B60FCF7DCFBA00703D508
:1055E000D9208DF8000002E0D8208DF8000000AA34
:1055F000012140F23D70FCF7CDFB600703D501208F
:1056000000F066F802E0002000F062F8E00603D542
:10561000012000F080F802E0002000F07CF854F057
:105620000800DFF840144881FAF758FF0020DFF83F
:1056300034148873600606D5DFF82804807B801D4B
:10564000DFF8201488734FF4C070044206D0DFF8EE
:105650001404807B801DDFF80C148873142004422E
:1056600006D0DFF80004807B1030DFF8F813887371
:105670000320044206D0DFF8EC03807B001DDFF836
:10568000E4138873002004B010BD30B587B0040067
:10569000E4B2002C0DD003A8DFF8E8132CC92CC00D
:1056A0000C390C3803AA09214FF49760FCF772FB00
:1056B0000CE000A8DFF8D0132CC92CC00C390C3832
:1056C00000AA09214FF49760FCF764FB07B030BDD6
:1056D000F8B50400E4B2002C0CD0C0208DF8000016
:1056E000C2208DF80100C4208DF80200C6208DF87C
:1056F000030007E004258B2600AF320029003800A4
:10570000FDF77CF800AA042140F69820FCF742FB44
:10571000FAF7E4FEF2BDF8B50400E4B2002C0CD0B8
:1057200020208DF8000028208DF8010030208DF811
:10573000020038208DF8030007E00425A32600AFFF
:10574000320029003800FDF759F800AA042140F67C
:105750009E20FCF71FFBFAF7C1FEF2BD2DE9F041D8
:105760000400E07810F0C0000600E07810F03F0080
:1057700005006078C00715D5EDB2E8080700EDB266
:10578000082095FBF0F101FB1051481C8046B548FC
:105790000068002806D04146C9B23800C0B2B14AFC
:1057A000126890476078000708D5AE484068002826
:1057B00004D0F6B2B009AB49496888470020BDE87B
:1057C000F08130B587B0040003A8B0492CC92CC0C3
:1057D0000C390C3800A8AE492CC92CC00C390C3837
:1057E000E4B22000012808D002280DD103AA0B2121
:1057F00040F68220FCF7CEFA08E000AA0B2140F622
:105800008220FCF7C7FA01E05FF0FF3007B030BD3F
:1058100000000000DE8A0008386B0008288C0008B1
:105820002C8C0008308C0008348C00082DE9F04FD7
:105830008DB004000D0016001F00DDF85880DDF863
:105840005C905FF0000B0020A8F800004A4600A919
:105850008448807B80B2FBF70FFC002802D05FF009
:10586000FF30F1E07F48807A142108426DD09DF826
:1058700000009DF80110090451EA00609DF8021033
:1058800050EA01209DF80310084330609DF80400A1
:105890009DF80510090451EA00609DF8061050EAD1
:1058A00001209DF80710084370609DF808009DF8DE
:1058B0000910090451EA00609DF80A1050EA01201D
:1058C0009DF80B100843B0609DF80C009DF80D107A
:1058D000090451EA00609DF80E1050EA01209DF87D
:1058E0000F100843F0601BF1100B30680014089093
:1058F000706800140990B06800140A90F0680014F1
:105900000B9008980899099A099B5A4301FB0020BB
:105910000A990A9A02FB01000B990B9A02FB0100FB
:105920008246BAF1706F02DBBAF1885F07DDFAF7E1
:10593000D5FD0020A8F800005FF0FF3084E0B8F843
:10594000000050F48070A8F800004648807A4006B5
:1059500033D500A85FFA8BFB1BF8000000A95FFAA3
:105960008BFB1BEB0101497851EA0020288000A83D
:105970005FFA8BFB1BEB0000807800A95FFA8BFBC2
:105980001BEB0101C97851EA0020688000A85FFA8A
:105990008BFB1BEB0000007900A95FFA8BFB1BEB74
:1059A0000101497951EA0020A8801BF1060BB8F8E3
:1059B000000050F00800A8F800002A4840894FF481
:1059C000C071084233D000A85FFA8BFB1BF80000BF
:1059D00000A95FFA8BFB1BEB0101497851EA00201B
:1059E000208000A85FFA8BFB1BEB0000807800A9E9
:1059F0005FFA8BFB1BEB0101C97851EA0020608044
:105A000000A85FFA8BFB1BEB0000007900A95FFA8E
:105A10008BFB1BEB0101497951EA0020A0801BF1AF
:105A2000060BB8F8000050F07000A8F800000D4810
:105A3000807A0321084206D000A85FFA8BFB1BEB9B
:105A40000000FFF78BFE00200DB0BDE8F08F0100D5
:105A500004480160002070470100024841600020B6
:105A6000704700003402002009E3CA02808B00085E
:105A700000004843000040460000C045000040458B
:105A80000000C0448C8B0008988B0008A48B000891
:105A9000B08B000862B38B0708D0521E11F8013B8F
:105AA00000F8013B00F024808B07F6D1830740F01B
:105AB000208000BF103A07D330B4B1E83810103A54
:105AC000A0E83810F9D230BC530724BFB1E8081061
:105AD000A0E8081044BF51F8043B40F8043BD2074B
